{
  "contractName": "Test",
  "abi": [
    {
      "inputs": [
        {
          "internalType": "uint256",
          "name": "testNum",
          "type": "uint256"
        }
      ],
      "name": "test",
      "outputs": [
        {
          "internalType": "uint256",
          "name": "",
          "type": "uint256"
        }
      ],
      "stateMutability": "pure",
      "type": "function"
    }
  ],
  "bytecode": "0x608060405234801561001057600080fd5b50610114806100206000396000f3fe6080604052348015600f57600080fd5b506004361060285760003560e01c806329e99f0714602d575b600080fd5b60436004803603810190603f91906074565b6057565b604051604e919060a7565b60405180910390f35b6000819050919050565b600081359050606e8160ca565b92915050565b600060208284031215608557600080fd5b60006091848285016061565b91505092915050565b60a18160c0565b82525050565b600060208201905060ba6000830184609a565b92915050565b6000819050919050565b60d18160c0565b811460db57600080fd5b5056fea2646970667358221220e5a1b0823bdd8821b4e760f4bcf48c4f9d64104af2a2e4ce9f9adcd49ab6724164736f6c63430008040033",
  "immutableReferences": {},
  "source": "// SPDX-License-Identifier: MIT\r\npragma solidity >=0.4.22 <0.9.0;\r\n\r\ncontract Test{\r\n   function test(uint testNum) external pure returns(uint){\r\n\r\n\r\n\r\n\r\nreturn testNum;\r\n\r\n\r\n   }\r\n}",
  "sourcePath": "D:\\block\\faucet\\contracts\\Test.sol",
  "compiler": {
    "name": "solc",
    "version": "0.8.4+commit.c7e474f2.Emscripten.clang"
  },
  "schemaVersion": "3.4.4",
  "updatedAt": "2022-02-13T17:18:23.884Z",
  "devdoc": {
    "kind": "dev",
    "methods": {},
    "version": 1
  },
  "userdoc": {
    "kind": "user",
    "methods": {},
    "version": 1
  }
}